{
  "contractName": "Bcoin",
  "abi": [
    {
      "inputs": [],
      "name": "decimals",
      "outputs": [
        {
          "internalType": "uint8",
          "name": "",
          "type": "uint8"
        }
      ],
      "stateMutability": "view",
      "type": "function"
    },
    {
      "inputs": [],
      "name": "name",
      "outputs": [
        {
          "internalType": "string",
          "name": "",
          "type": "string"
        }
      ],
      "stateMutability": "view",
      "type": "function"
    },
    {
      "inputs": [],
      "name": "symbol",
      "outputs": [
        {
          "internalType": "string",
          "name": "",
          "type": "string"
        }
      ],
      "stateMutability": "view",
      "type": "function"
    },
    {
      "inputs": [],
      "name": "totalSupply",
      "outputs": [
        {
          "internalType": "uint256",
          "name": "",
          "type": "uint256"
        }
      ],
      "stateMutability": "view",
      "type": "function"
    }
  ],
  "bytecode": "0x60806040526040518060400160405280600581526020017f42636f696e0000000000000000000000000000000000000000000000000000008152506000908051906020019061004f9291906100d8565b506040518060400160405280600481526020017f55534454000000000000000000000000000000000000000000000000000000008152506001908051906020019061009b9291906100d8565b5069d3c21bcecceda10000006002556012600360006101000a81548160ff021916908360ff1602179055503480156100d257600080fd5b506101dc565b8280546100e49061017b565b90600052602060002090601f016020900481019282610106576000855561014d565b82601f1061011f57805160ff191683800117855561014d565b8280016001018555821561014d579182015b8281111561014c578251825591602001919060010190610131565b5b50905061015a919061015e565b5090565b5b8082111561017757600081600090555060010161015f565b5090565b6000600282049050600182168061019357607f821691505b602082108114156101a7576101a66101ad565b5b50919050565b7f4e487b7100000000000000000000000000000000000000000000000000000000600052602260045260246000fd5b6103bb806101eb6000396000f3fe608060405234801561001057600080fd5b506004361061004c5760003560e01c806306fdde031461005157806318160ddd1461006f578063313ce5671461008d57806395d89b41146100ab575b600080fd5b6100596100c9565b6040516100669190610255565b60405180910390f35b610077610157565b6040516100849190610277565b60405180910390f35b61009561015d565b6040516100a29190610292565b60405180910390f35b6100b3610170565b6040516100c09190610255565b60405180910390f35b600080546100d690610313565b80601f016020809104026020016040519081016040528092919081815260200182805461010290610313565b801561014f5780601f106101245761010080835404028352916020019161014f565b820191906000526020600020905b81548152906001019060200180831161013257829003601f168201915b505050505081565b60025481565b600360009054906101000a900460ff1681565b6001805461017d90610313565b80601f01602080910402602001604051908101604052809291908181526020018280546101a990610313565b80156101f65780601f106101cb576101008083540402835291602001916101f6565b820191906000526020600020905b8154815290600101906020018083116101d957829003601f168201915b505050505081565b6000610209826102ad565b61021381856102b8565b93506102238185602086016102e0565b61022c81610374565b840191505092915050565b610240816102c9565b82525050565b61024f816102d3565b82525050565b6000602082019050818103600083015261026f81846101fe565b905092915050565b600060208201905061028c6000830184610237565b92915050565b60006020820190506102a76000830184610246565b92915050565b600081519050919050565b600082825260208201905092915050565b6000819050919050565b600060ff82169050919050565b60005b838110156102fe5780820151818401526020810190506102e3565b8381111561030d576000848401525b50505050565b6000600282049050600182168061032b57607f821691505b6020821081141561033f5761033e610345565b5b50919050565b7f4e487b7100000000000000000000000000000000000000000000000000000000600052602260045260246000fd5b6000601f19601f830116905091905056fea2646970667358221220d5a8a785f1332280f8c9b61c5a18f3c19ef52662233b927be769197a55f371cd64736f6c63430008070033",
  "immutableReferences": {},
  "source": "// SPDX-License-Identifier: MIT\npragma solidity ^0.8.7;\n\ncontract Bcoin {\n    string public name = \"Bcoin\";\n    string public symbol = \"USDT\";\n    uint public totalSupply = 1000000000000000000000000;\n    uint8 public decimals = 18;\n}",
  "sourcePath": "/Users/boluwatifeayodele/blockchain_Projects/defi-staking-app-starter/defi-staking-app-starter/src/contracts/Bcoin.sol",
  "compiler": {
    "name": "solc",
    "version": "0.8.7+commit.e28d00a7.Emscripten.clang"
  },
  "schemaVersion": "3.4.3",
  "updatedAt": "2021-09-14T12:55:36.652Z",
  "devdoc": {
    "kind": "dev",
    "methods": {},
    "version": 1
  },
  "userdoc": {
    "kind": "user",
    "methods": {},
    "version": 1
  }
}