{
  "contractName": "Rwd",
  "abi": [
    {
      "inputs": [],
      "stateMutability": "nonpayable",
      "type": "constructor"
    },
    {
      "anonymous": false,
      "inputs": [
        {
          "indexed": true,
          "internalType": "address",
          "name": "_owner",
          "type": "address"
        },
        {
          "indexed": false,
          "internalType": "uint256",
          "name": "value",
          "type": "uint256"
        },
        {
          "indexed": true,
          "internalType": "address",
          "name": "_spender",
          "type": "address"
        }
      ],
      "name": "Approval",
      "type": "event"
    },
    {
      "anonymous": false,
      "inputs": [
        {
          "indexed": true,
          "internalType": "address",
          "name": "_from",
          "type": "address"
        },
        {
          "indexed": true,
          "internalType": "address",
          "name": "_to",
          "type": "address"
        },
        {
          "indexed": false,
          "internalType": "uint256",
          "name": "_value",
          "type": "uint256"
        }
      ],
      "name": "Transfer",
      "type": "event"
    },
    {
      "inputs": [
        {
          "internalType": "address",
          "name": "",
          "type": "address"
        },
        {
          "internalType": "address",
          "name": "",
          "type": "address"
        }
      ],
      "name": "allowance",
      "outputs": [
        {
          "internalType": "uint256",
          "name": "",
          "type": "uint256"
        }
      ],
      "stateMutability": "view",
      "type": "function",
      "constant": true
    },
    {
      "inputs": [
        {
          "internalType": "address",
          "name": "",
          "type": "address"
        }
      ],
      "name": "balanceOf",
      "outputs": [
        {
          "internalType": "uint256",
          "name": "",
          "type": "uint256"
        }
      ],
      "stateMutability": "view",
      "type": "function",
      "constant": true
    },
    {
      "inputs": [],
      "name": "decimals",
      "outputs": [
        {
          "internalType": "uint8",
          "name": "",
          "type": "uint8"
        }
      ],
      "stateMutability": "view",
      "type": "function",
      "constant": true
    },
    {
      "inputs": [],
      "name": "name",
      "outputs": [
        {
          "internalType": "string",
          "name": "",
          "type": "string"
        }
      ],
      "stateMutability": "view",
      "type": "function",
      "constant": true
    },
    {
      "inputs": [],
      "name": "symbol",
      "outputs": [
        {
          "internalType": "string",
          "name": "",
          "type": "string"
        }
      ],
      "stateMutability": "view",
      "type": "function",
      "constant": true
    },
    {
      "inputs": [],
      "name": "totalSupply",
      "outputs": [
        {
          "internalType": "uint256",
          "name": "",
          "type": "uint256"
        }
      ],
      "stateMutability": "view",
      "type": "function",
      "constant": true
    },
    {
      "inputs": [
        {
          "internalType": "address",
          "name": "_to",
          "type": "address"
        },
        {
          "internalType": "uint256",
          "name": "_value",
          "type": "uint256"
        }
      ],
      "name": "transfer",
      "outputs": [
        {
          "internalType": "bool",
          "name": "success",
          "type": "bool"
        }
      ],
      "stateMutability": "nonpayable",
      "type": "function"
    },
    {
      "inputs": [
        {
          "internalType": "uint256",
          "name": "_value",
          "type": "uint256"
        },
        {
          "internalType": "address",
          "name": "_spender",
          "type": "address"
        }
      ],
      "name": "approval",
      "outputs": [
        {
          "internalType": "bool",
          "name": "success",
          "type": "bool"
        }
      ],
      "stateMutability": "nonpayable",
      "type": "function"
    },
    {
      "inputs": [
        {
          "internalType": "address",
          "name": "_to",
          "type": "address"
        },
        {
          "internalType": "address",
          "name": "_from",
          "type": "address"
        },
        {
          "internalType": "uint256",
          "name": "_value",
          "type": "uint256"
        }
      ],
      "name": "transferFrom",
      "outputs": [
        {
          "internalType": "bool",
          "name": "success",
          "type": "bool"
        }
      ],
      "stateMutability": "nonpayable",
      "type": "function"
    }
  ],
  "bytecode": "0x60806040526040518060400160405280600c81526020017f52657761726420546f6b656e0000000000000000000000000000000000000000815250600090805190602001906200005192919062000124565b506040518060400160405280600481526020017f5553445400000000000000000000000000000000000000000000000000000000815250600190805190602001906200009f92919062000124565b5069d3c21bcecceda10000006002556012600360006101000a81548160ff021916908360ff160217905550348015620000d757600080fd5b50600254600460003373ffffffffffffffffffffffffffffffffffffffff1673ffffffffffffffffffffffffffffffffffffffff1681526020019081526020016000208190555062000239565b8280546200013290620001d4565b90600052602060002090601f016020900481019282620001565760008555620001a2565b82601f106200017157805160ff1916838001178555620001a2565b82800160010185558215620001a2579182015b82811115620001a157825182559160200191906001019062000184565b5b509050620001b19190620001b5565b5090565b5b80821115620001d0576000816000905550600101620001b6565b5090565b60006002820490506001821680620001ed57607f821691505b602082108114156200020457620002036200020a565b5b50919050565b7f4e487b7100000000000000000000000000000000000000000000000000000000600052602260045260246000fd5b610cce80620002496000396000f3fe608060405234801561001057600080fd5b50600436106100935760003560e01c806370a082311161006657806370a082311461012257806395d89b4114610152578063a9059cbb14610170578063b848de35146101a0578063dd62ed3e146101d057610093565b806306fdde031461009857806318160ddd146100b657806323b872dd146100d4578063313ce56714610104575b600080fd5b6100a0610200565b6040516100ad9190610a3e565b60405180910390f35b6100be61028e565b6040516100cb9190610a60565b60405180910390f35b6100ee60048036038101906100e991906108ea565b610294565b6040516100fb9190610a23565b60405180910390f35b61010c61051a565b6040516101199190610a7b565b60405180910390f35b61013c6004803603810190610137919061087d565b61052d565b6040516101499190610a60565b60405180910390f35b61015a610545565b6040516101679190610a3e565b60405180910390f35b61018a6004803603810190610185919061093d565b6105d3565b6040516101979190610a23565b60405180910390f35b6101ba60048036038101906101b5919061097d565b61073c565b6040516101c79190610a23565b60405180910390f35b6101ea60048036038101906101e591906108aa565b61082e565b6040516101f79190610a60565b60405180910390f35b6000805461020d90610bc4565b80601f016020809104026020016040519081016040528092919081815260200182805461023990610bc4565b80156102865780601f1061025b57610100808354040283529160200191610286565b820191906000526020600020905b81548152906001019060200180831161026957829003601f168201915b505050505081565b60025481565b6000600460003373ffffffffffffffffffffffffffffffffffffffff1673ffffffffffffffffffffffffffffffffffffffff168152602001908152602001600020548211156102e257600080fd5b600560008473ffffffffffffffffffffffffffffffffffffffff1673ffffffffffffffffffffffffffffffffffffffff16815260200190815260200160002060003373ffffffffffffffffffffffffffffffffffffffff1673ffffffffffffffffffffffffffffffffffffffff1681526020019081526020016000205482111561036b57600080fd5b81600460008573ffffffffffffffffffffffffffffffffffffffff1673ffffffffffffffffffffffffffffffffffffffff16815260200190815260200160002060008282546103ba9190610ab2565b9250508190555081600460008673ffffffffffffffffffffffffffffffffffffffff1673ffffffffffffffffffffffffffffffffffffffff16815260200190815260200160002060008282546104109190610b08565b9250508190555081600560008573ffffffffffffffffffffffffffffffffffffffff1673ffffffffffffffffffffffffffffffffffffffff16815260200190815260200160002060003373ffffffffffffffffffffffffffffffffffffffff1673ffffffffffffffffffffffffffffffffffffffff16815260200190815260200160002060008282546104a39190610b08565b925050819055508373ffffffffffffffffffffffffffffffffffffffff168373ffffffffffffffffffffffffffffffffffffffff167fddf252ad1be2c89b69c2b068fc378daa952ba7f163c4a11628f55a4df523b3ef846040516105079190610a60565b60405180910390a3600190509392505050565b600360009054906101000a900460ff1681565b60046020528060005260406000206000915090505481565b6001805461055290610bc4565b80601f016020809104026020016040519081016040528092919081815260200182805461057e90610bc4565b80156105cb5780601f106105a0576101008083540402835291602001916105cb565b820191906000526020600020905b8154815290600101906020018083116105ae57829003601f168201915b505050505081565b600081600460003373ffffffffffffffffffffffffffffffffffffffff1673ffffffffffffffffffffffffffffffffffffffff16815260200190815260200160002054111561062157600080fd5b81600460003373ffffffffffffffffffffffffffffffffffffffff1673ffffffffffffffffffffffffffffffffffffffff16815260200190815260200160002060008282546106709190610b08565b9250508190555081600460008573ffffffffffffffffffffffffffffffffffffffff1673ffffffffffffffffffffffffffffffffffffffff16815260200190815260200160002060008282546106c69190610ab2565b925050819055508273ffffffffffffffffffffffffffffffffffffffff163373ffffffffffffffffffffffffffffffffffffffff167fddf252ad1be2c89b69c2b068fc378daa952ba7f163c4a11628f55a4df523b3ef8460405161072a9190610a60565b60405180910390a36001905092915050565b600082600560003373ffffffffffffffffffffffffffffffffffffffff1673ffffffffffffffffffffffffffffffffffffffff16815260200190815260200160002060008473ffffffffffffffffffffffffffffffffffffffff1673ffffffffffffffffffffffffffffffffffffffff168152602001908152602001600020819055508173ffffffffffffffffffffffffffffffffffffffff163373ffffffffffffffffffffffffffffffffffffffff167f57a73c4d62501299974bd3ff0b7c8b9e894bab4a9d19ef39ba229d13fd6b30b88560405161081c9190610a60565b60405180910390a36001905092915050565b6005602052816000526040600020602052806000526040600020600091509150505481565b60008135905061086281610c6a565b92915050565b60008135905061087781610c81565b92915050565b60006020828403121561089357610892610c54565b5b60006108a184828501610853565b91505092915050565b600080604083850312156108c1576108c0610c54565b5b60006108cf85828601610853565b92505060206108e085828601610853565b9150509250929050565b60008060006060848603121561090357610902610c54565b5b600061091186828701610853565b935050602061092286828701610853565b925050604061093386828701610868565b9150509250925092565b6000806040838503121561095457610953610c54565b5b600061096285828601610853565b925050602061097385828601610868565b9150509250929050565b6000806040838503121561099457610993610c54565b5b60006109a285828601610868565b92505060206109b385828601610853565b9150509250929050565b6109c681610b4e565b82525050565b60006109d782610a96565b6109e18185610aa1565b93506109f1818560208601610b91565b6109fa81610c59565b840191505092915050565b610a0e81610b7a565b82525050565b610a1d81610b84565b82525050565b6000602082019050610a3860008301846109bd565b92915050565b60006020820190508181036000830152610a5881846109cc565b905092915050565b6000602082019050610a756000830184610a05565b92915050565b6000602082019050610a906000830184610a14565b92915050565b600081519050919050565b600082825260208201905092915050565b6000610abd82610b7a565b9150610ac883610b7a565b9250827fffffffffffffffffffffffffffffffffffffffffffffffffffffffffffffffff03821115610afd57610afc610bf6565b5b828201905092915050565b6000610b1382610b7a565b9150610b1e83610b7a565b925082821015610b3157610b30610bf6565b5b828203905092915050565b6000610b4782610b5a565b9050919050565b60008115159050919050565b600073ffffffffffffffffffffffffffffffffffffffff82169050919050565b6000819050919050565b600060ff82169050919050565b60005b83811015610baf578082015181840152602081019050610b94565b83811115610bbe576000848401525b50505050565b60006002820490506001821680610bdc57607f821691505b60208210811415610bf057610bef610c25565b5b50919050565b7f4e487b7100000000000000000000000000000000000000000000000000000000600052601160045260246000fd5b7f4e487b7100000000000000000000000000000000000000000000000000000000600052602260045260246000fd5b600080fd5b6000601f19601f8301169050919050565b610c7381610b3c565b8114610c7e57600080fd5b50565b610c8a81610b7a565b8114610c9557600080fd5b5056fea264697066735822122083c77d4de174b163da84c47a33f6e8725b0e0174a59e89115e4eef65544a82a864736f6c63430008070033",
  "immutableReferences": {},
  "source": "// SPDX-License-Identifier: MIT\npragma solidity ^0.8.7;\n\ncontract Rwd {\n    string public name = \"Reward Token\";\n    string public symbol = \"USDT\";\n    uint public totalSupply = 1000000000000000000000000;\n    uint8 public decimals = 18;\n\n\nevent Transfer(\n    address  indexed _from,\n    address indexed _to,\n    uint _value\n\n);\n\nevent Approval (\n    address indexed _owner,\n    uint value,\n    address indexed _spender\n);\n\nmapping(address => uint) public balanceOf;\nmapping(address => mapping(address => uint)) public allowance;\n\n\nconstructor(){\n    balanceOf[msg.sender] = totalSupply;\n}\n\nfunction transfer(address _to,uint _value) public returns (bool success){\n    require(balanceOf[msg.sender] <= _value);\n    balanceOf[msg.sender] -= _value;\n    balanceOf[_to] += _value;\n    emit Transfer(msg.sender,_to,_value);\n    return true;\n\n}\n\nfunction approval(uint _value, address _spender) public returns (bool success) {\n    allowance[msg.sender][_spender] = _value;\n    emit Approval(msg.sender,_value, _spender);\n    return true;\n}\n\nfunction transferFrom(address _to,address _from, uint _value) public returns(bool success){\n    require(_value <= balanceOf[msg.sender]);\n    require(_value <= allowance[_from][msg.sender]);\n    balanceOf[_from] += _value;\n    balanceOf[_to] -= _value;\n    allowance[_from][msg.sender] -= _value;\n    emit Transfer(_from,_to,_value);\n    return true;\n}\n\n}\n",
  "sourcePath": "/Users/boluwatifeayodele/blockchain_Projects/defi-staking-app-starter/defi-staking-app-starter/src/contracts/Rwd.sol",
  "compiler": {
    "name": "solc",
    "version": "0.8.7+commit.e28d00a7.Emscripten.clang"
  },
  "schemaVersion": "3.4.3",
  "updatedAt": "2021-09-19T20:55:05.252Z",
  "networkType": "ethereum",
  "devdoc": {
    "kind": "dev",
    "methods": {},
    "version": 1
  },
  "userdoc": {
    "kind": "user",
    "methods": {},
    "version": 1
  }
}